{
  "_format": "hh-sol-artifact-1",
  "contractName": "AmanMemilih",
  "sourceName": "contracts/AmanMemilih.sol",
  "abi": [
    {
      "inputs": [],
      "name": "getListDocument",
      "outputs": [
        {
          "internalType": "uint32[]",
          "name": "",
          "type": "uint32[]"
        },
        {
          "internalType": "string[]",
          "name": "",
          "type": "string[]"
        },
        {
          "internalType": "string[]",
          "name": "",
          "type": "string[]"
        },
        {
          "internalType": "uint8[]",
          "name": "",
          "type": "uint8[]"
        },
        {
          "internalType": "uint64[]",
          "name": "",
          "type": "uint64[]"
        }
      ],
      "stateMutability": "view",
      "type": "function"
    },
    {
      "inputs": [],
      "name": "lastPresidentialDocumentId",
      "outputs": [
        {
          "internalType": "uint32",
          "name": "",
          "type": "uint32"
        }
      ],
      "stateMutability": "view",
      "type": "function"
    },
    {
      "inputs": [
        {
          "internalType": "uint256",
          "name": "",
          "type": "uint256"
        }
      ],
      "name": "presidentialDocuments",
      "outputs": [
        {
          "internalType": "uint32",
          "name": "id",
          "type": "uint32"
        },
        {
          "internalType": "string",
          "name": "documentC1",
          "type": "string"
        },
        {
          "internalType": "string",
          "name": "userId",
          "type": "string"
        },
        {
          "internalType": "uint8",
          "name": "status",
          "type": "uint8"
        },
        {
          "internalType": "uint64",
          "name": "createdAt",
          "type": "uint64"
        }
      ],
      "stateMutability": "view",
      "type": "function"
    },
    {
      "inputs": [
        {
          "internalType": "string",
          "name": "documentC1",
          "type": "string"
        },
        {
          "internalType": "string",
          "name": "userId",
          "type": "string"
        },
        {
          "internalType": "uint64",
          "name": "createdAt",
          "type": "uint64"
        }
      ],
      "name": "uploadPresidentialDocument",
      "outputs": [],
      "stateMutability": "nonpayable",
      "type": "function"
    }
  ],
  "bytecode": "0x60806040526000600160006101000a81548163ffffffff021916908363ffffffff160217905550348015603157600080fd5b506113b2806100416000396000f3fe608060405234801561001057600080fd5b506004361061004c5760003560e01c8063a5a78bad14610051578063c697698f1461006f578063cd09ee5014610091578063f158c6b5146100ad575b600080fd5b6100596100e1565b60405161006691906108aa565b60405180910390f35b6100776100f7565b604051610088959493929190610c72565b60405180910390f35b6100ab60048036038101906100a69190610e5d565b61059b565b005b6100c760048036038101906100c29190610f1e565b610704565b6040516100d8959493929190610fb3565b60405180910390f35b600160009054906101000a900463ffffffff1681565b60608060608060606000808054905067ffffffffffffffff81111561011f5761011e610d06565b5b60405190808252806020026020018201604052801561014d5781602001602082028036833780820191505090505b5090506000808054905067ffffffffffffffff8111156101705761016f610d06565b5b6040519080825280602002602001820160405280156101a357816020015b606081526020019060019003908161018e5790505b5090506000808054905067ffffffffffffffff8111156101c6576101c5610d06565b5b6040519080825280602002602001820160405280156101f957816020015b60608152602001906001900390816101e45790505b5090506000808054905067ffffffffffffffff81111561021c5761021b610d06565b5b60405190808252806020026020018201604052801561024a5781602001602082028036833780820191505090505b5090506000808054905067ffffffffffffffff81111561026d5761026c610d06565b5b60405190808252806020026020018201604052801561029b5781602001602082028036833780820191505090505b50905060005b60008054905081101561057f57600081815481106102c2576102c1611014565b5b906000526020600020906004020160000160009054906101000a900463ffffffff168682815181106102f7576102f6611014565b5b602002602001019063ffffffff16908163ffffffff16815250506000818154811061032557610324611014565b5b9060005260206000209060040201600101805461034190611072565b80601f016020809104026020016040519081016040528092919081815260200182805461036d90611072565b80156103ba5780601f1061038f576101008083540402835291602001916103ba565b820191906000526020600020905b81548152906001019060200180831161039d57829003601f168201915b50505050508582815181106103d2576103d1611014565b5b6020026020010181905250600081815481106103f1576103f0611014565b5b9060005260206000209060040201600201805461040d90611072565b80601f016020809104026020016040519081016040528092919081815260200182805461043990611072565b80156104865780601f1061045b57610100808354040283529160200191610486565b820191906000526020600020905b81548152906001019060200180831161046957829003601f168201915b505050505084828151811061049e5761049d611014565b5b6020026020010181905250600081815481106104bd576104bc611014565b5b906000526020600020906004020160030160009054906101000a900460ff168382815181106104ef576104ee611014565b5b602002602001019060ff16908160ff16815250506000818154811061051757610516611014565b5b906000526020600020906004020160030160019054906101000a900467ffffffffffffffff168282815181106105505761054f611014565b5b602002602001019067ffffffffffffffff16908167ffffffffffffffff168152505080806001019150506102a1565b5084848484849950995099509950995050505050509091929394565b6001600081819054906101000a900463ffffffff16809291906105bd906110d2565b91906101000a81548163ffffffff021916908363ffffffff1602179055505060006040518060a00160405280600160009054906101000a900463ffffffff1663ffffffff168152602001858152602001848152602001600060ff1681526020018367ffffffffffffffff168152509050600081908060018154018082558091505060019003906000526020600020906004020160009091909190915060008201518160000160006101000a81548163ffffffff021916908363ffffffff160217905550602082015181600101908161069591906112aa565b5060408201518160020190816106ab91906112aa565b5060608201518160030160006101000a81548160ff021916908360ff16021790555060808201518160030160016101000a81548167ffffffffffffffff021916908367ffffffffffffffff160217905550505050505050565b6000818154811061071457600080fd5b90600052602060002090600402016000915090508060000160009054906101000a900463ffffffff169080600101805461074d90611072565b80601f016020809104026020016040519081016040528092919081815260200182805461077990611072565b80156107c65780601f1061079b576101008083540402835291602001916107c6565b820191906000526020600020905b8154815290600101906020018083116107a957829003601f168201915b5050505050908060020180546107db90611072565b80601f016020809104026020016040519081016040528092919081815260200182805461080790611072565b80156108545780601f1061082957610100808354040283529160200191610854565b820191906000526020600020905b81548152906001019060200180831161083757829003601f168201915b5050505050908060030160009054906101000a900460ff16908060030160019054906101000a900467ffffffffffffffff16905085565b600063ffffffff82169050919050565b6108a48161088b565b82525050565b60006020820190506108bf600083018461089b565b92915050565b600081519050919050565b600082825260208201905092915050565b6000819050602082019050919050565b6108fa8161088b565b82525050565b600061090c83836108f1565b60208301905092915050565b6000602082019050919050565b6000610930826108c5565b61093a81856108d0565b9350610945836108e1565b8060005b8381101561097657815161095d8882610900565b975061096883610918565b925050600181019050610949565b5085935050505092915050565b600081519050919050565b600082825260208201905092915050565b6000819050602082019050919050565b600081519050919050565b600082825260208201905092915050565b60005b838110156109e95780820151818401526020810190506109ce565b60008484015250505050565b6000601f19601f8301169050919050565b6000610a11826109af565b610a1b81856109ba565b9350610a2b8185602086016109cb565b610a34816109f5565b840191505092915050565b6000610a4b8383610a06565b905092915050565b6000602082019050919050565b6000610a6b82610983565b610a75818561098e565b935083602082028501610a878561099f565b8060005b85811015610ac35784840389528151610aa48582610a3f565b9450610aaf83610a53565b925060208a01995050600181019050610a8b565b50829750879550505050505092915050565b600081519050919050565b600082825260208201905092915050565b6000819050602082019050919050565b600060ff82169050919050565b610b1781610b01565b82525050565b6000610b298383610b0e565b60208301905092915050565b6000602082019050919050565b6000610b4d82610ad5565b610b578185610ae0565b9350610b6283610af1565b8060005b83811015610b93578151610b7a8882610b1d565b9750610b8583610b35565b925050600181019050610b66565b5085935050505092915050565b600081519050919050565b600082825260208201905092915050565b6000819050602082019050919050565b600067ffffffffffffffff82169050919050565b610be981610bcc565b82525050565b6000610bfb8383610be0565b60208301905092915050565b6000602082019050919050565b6000610c1f82610ba0565b610c298185610bab565b9350610c3483610bbc565b8060005b83811015610c65578151610c4c8882610bef565b9750610c5783610c07565b925050600181019050610c38565b5085935050505092915050565b600060a0820190508181036000830152610c8c8188610925565b90508181036020830152610ca08187610a60565b90508181036040830152610cb48186610a60565b90508181036060830152610cc88185610b42565b90508181036080830152610cdc8184610c14565b90509695505050505050565b6000604051905090565b600080fd5b600080fd5b600080fd5b600080fd5b7f4e487b7100000000000000000000000000000000000000000000000000000000600052604160045260246000fd5b610d3e826109f5565b810181811067ffffffffffffffff82111715610d5d57610d5c610d06565b5b80604052505050565b6000610d70610ce8565b9050610d7c8282610d35565b919050565b600067ffffffffffffffff821115610d9c57610d9b610d06565b5b610da5826109f5565b9050602081019050919050565b82818337600083830152505050565b6000610dd4610dcf84610d81565b610d66565b905082815260208101848484011115610df057610def610d01565b5b610dfb848285610db2565b509392505050565b600082601f830112610e1857610e17610cfc565b5b8135610e28848260208601610dc1565b91505092915050565b610e3a81610bcc565b8114610e4557600080fd5b50565b600081359050610e5781610e31565b92915050565b600080600060608486031215610e7657610e75610cf2565b5b600084013567ffffffffffffffff811115610e9457610e93610cf7565b5b610ea086828701610e03565b935050602084013567ffffffffffffffff811115610ec157610ec0610cf7565b5b610ecd86828701610e03565b9250506040610ede86828701610e48565b9150509250925092565b6000819050919050565b610efb81610ee8565b8114610f0657600080fd5b50565b600081359050610f1881610ef2565b92915050565b600060208284031215610f3457610f33610cf2565b5b6000610f4284828501610f09565b91505092915050565b600082825260208201905092915050565b6000610f67826109af565b610f718185610f4b565b9350610f818185602086016109cb565b610f8a816109f5565b840191505092915050565b610f9e81610b01565b82525050565b610fad81610bcc565b82525050565b600060a082019050610fc8600083018861089b565b8181036020830152610fda8187610f5c565b90508181036040830152610fee8186610f5c565b9050610ffd6060830185610f95565b61100a6080830184610fa4565b9695505050505050565b7f4e487b7100000000000000000000000000000000000000000000000000000000600052603260045260246000fd5b7f4e487b7100000000000000000000000000000000000000000000000000000000600052602260045260246000fd5b6000600282049050600182168061108a57607f821691505b60208210810361109d5761109c611043565b5b50919050565b7f4e487b7100000000000000000000000000000000000000000000000000000000600052601160045260246000fd5b60006110dd8261088b565b915063ffffffff82036110f3576110f26110a3565b5b600182019050919050565b60008190508160005260206000209050919050565b60006020601f8301049050919050565b600082821b905092915050565b6000600883026111607fffffffffffffffffffffffffffffffffffffffffffffffffffffffffffffffff82611123565b61116a8683611123565b95508019841693508086168417925050509392505050565b6000819050919050565b60006111a76111a261119d84610ee8565b611182565b610ee8565b9050919050565b6000819050919050565b6111c18361118c565b6111d56111cd826111ae565b848454611130565b825550505050565b600090565b6111ea6111dd565b6111f58184846111b8565b505050565b5b818110156112195761120e6000826111e2565b6001810190506111fb565b5050565b601f82111561125e5761122f816110fe565b61123884611113565b81016020851015611247578190505b61125b61125385611113565b8301826111fa565b50505b505050565b600082821c905092915050565b600061128160001984600802611263565b1980831691505092915050565b600061129a8383611270565b9150826002028217905092915050565b6112b3826109af565b67ffffffffffffffff8111156112cc576112cb610d06565b5b6112d68254611072565b6112e182828561121d565b600060209050601f8311600181146113145760008415611302578287015190505b61130c858261128e565b865550611374565b601f198416611322866110fe565b60005b8281101561134a57848901518255600182019150602085019450602081019050611325565b868310156113675784890151611363601f891682611270565b8355505b6001600288020188555050505b50505050505056fea2646970667358221220f6fa31facd69237e6a3abe40be0fff6795213c48bcfc13131b71c44826fa556c64736f6c634300081c0033",
  "linkReferences": {},
  "deployedLinkReferences": {}
}